//NOTE: replace @quantnetwork/ with ../../packages/ for all require statements below if you have not built the SDK yourself
const OverledgerSDK = require('@quantnetwork/overledger-bundle').default;
const DltNameOptions = require('@quantnetwork/overledger-types').DltNameOptions;
const TransactionTypeOptions = require('@quantnetwork/overledger-types').TransactionTypeOptions;
const TransactionBitcoinSubTypeOptions = require('@quantnetwork/overledger-dlt-bitcoin').TransactionBitcoinSubTypeOptions;

//  ---------------------------------------------------------
//  -------------- BEGIN VARIABLES TO UPDATE ----------------
//  ---------------------------------------------------------
const mappId = '...';
const bpiKey = '...';

// Paste in your bitcoin, ethereum and XRP ledger private keys.

// For Bitcoin you can generate an account using `OverledgerSDK.dlts.bitcoin.createAccount` then fund the address at the Bitcoin Testnet Faucet.
const partyABitcoinPrivateKey = 'cUk9izv1EPDSB2CJ7sf6RdVa6BDUWUBN8icE2LVW5ixvDApqBReT';
const partyABitcoinAddress = 'mfYHTfMs5ptQpWoefcdt9RWi3WTWGeSB7J';
const bitcoinLinkedTx = '7156c0f57ff0a0973dabf58325eb972f659699afa417cd0f55da55964875f763'; // Add the previous transaction here
const bitcoinLinkedIndex = '1'; // Add the linked transaction index here
const bitcoinInputAmount = 1686030; // set equal to the number of satoshis in your first input
const bitcoinPartyBAmount = 10000; // set equal to the number of satoshis to send to party B
const bitcoinChangeAmount = 1673830; // set equal to the number of satoshis to send back to yourself 
                                // ( must be equal to 'total input amount' - 'party B amount' - extraFields.feePrice )

// HTLC p2sh-p2wsh address obtained in the creation step with create-p2sh-p2wsh-payment-channel.js
const partyBBitcoinAddress = '2N9TUL7wpDAhuZa1VefSoW5fRevhEq6QUTa';

//  ---------------------------------------------------------
//  -------------- END VARIABLES TO UPDATE ------------------
//  ---------------------------------------------------------

; (async () => {
  try {
    // Connect to overledger and choose which distributed ledgers to use:
    const overledger = new OverledgerSDK(mappId, bpiKey, {
      dlts: [{ dlt: DltNameOptions.BITCOIN }],
      provider: { network: 'testnet' },
    });
    const transactionMessage = 'OVL SDK Test';

    // SET partyA accounts for signing;
    overledger.dlts.bitcoin.setAccount({ privateKey: partyABitcoinPrivateKey });

    const signedTransactions = await overledger.sign([
    {
          // The following parameters are from the TransactionRequest object:
      dlt: DltNameOptions.BITCOIN,
      type: TransactionTypeOptions.UTXO,
      subType: {name: TransactionBitcoinSubTypeOptions.VALUE_TRANSFER},
      message: transactionMessage,
            // The following parameters are from the TransactionUtxoRequest object:
      txInputs: [ // Set as many inputs as required in order to fund your outputs
        {
          linkedTx: bitcoinLinkedTx,
          linkedIndex: bitcoinLinkedIndex,
          fromAddress: partyABitcoinAddress,
          linkedRawTransaction: '0200000001ea93fcf2ac13220b0885f09c9f3f401486fe5b37dfb84ad2e724ba9a0b82e0f9010000006a473044022022e9d30ab5a44bd909469a62d278e0c85266ea96c8df632f2e1fcfbad12e9df602203d6ab244f108ba7100e25aa92076feaece092ff58a4dd2a7557dd32932642d4d0121035b71e0ec7329c32acf0a86eaa62e88951818021c9ff893108ef5b3103db32221ffffffff031027000000000000220020747a5f2f5822fa03b1ac4b4a83a74bf31f552c719d48b194d7d9246e7ff2cef30eba1900000000001976a91400406a26567183b9b3e42e5fed00f70a2d11428188ac00000000000000000e6a0c4f564c2053444b205465737400000000',
          scriptPubKey: '76a91400406a26567183b9b3e42e5fed00f70a2d11428188ac',
          amount: bitcoinInputAmount
        }
      ],
      txOutputs: [ // Set as many outputs as required
        {  
          toAddress: partyBBitcoinAddress,
          amount: bitcoinPartyBAmount 
        },
        {
          toAddress: partyABitcoinAddress, // This is the change address
          amount: bitcoinChangeAmount 
        }
      ],
      extraFields: {
              // The following parameters are from the TransactionBitcoinRequest object:
        feePrice: '2200' // Price for the miner to add this transaction to the block
      },
    }
  ]);

    console.log("Signed transactions: ");
    console.log(JSON.stringify(signedTransactions, null, 2));

    // Send the transactions to Overledger.
    const result = (await overledger.send(signedTransactions)).data;

    // Log the result.
    console.log('OVL result:');
    console.log(JSON.stringify(result, null, 2));
    console.log("");
    counter = 0;
    while (counter < result.dltData.length){
      console.log('Your ' + result.dltData[counter].dlt + ' value transfer transaction hash is: ' + result.dltData[counter].transactionHash);
      console.log("");
      counter = counter + 1;
    }
  } catch (e) {
    console.error('error:', e);
  }
})();