//NOTE: replace @quantnetwork/ with ../../packages/ for all require statements below if you have not built the SDK yourself
const OverledgerSDK = require('@quantnetwork/overledger-bundle').default;
const DltNameOptions = require('@quantnetwork/overledger-types').DltNameOptions;
const TransactionTypeOptions = require('@quantnetwork/overledger-types').TransactionTypeOptions;
const TransactionBitcoinSubTypeOptions = require('@quantnetwork/overledger-dlt-bitcoin').TransactionBitcoinSubTypeOptions;

//  ---------------------------------------------------------
//  -------------- BEGIN VARIABLES TO UPDATE ----------------
//  ---------------------------------------------------------
const mappId = '...';
const bpiKey = '...';

// Paste in your bitcoin private keys.

// For Bitcoin you can generate an account using `OverledgerSDK.dlts.bitcoin.createAccount` then fund the address at the Bitcoin Testnet Faucet.
const partyABitcoinPrivateKey = 'cUk9izv1EPDSB2CJ7sf6RdVa6BDUWUBN8icE2LVW5ixvDApqBReT';
const partyABitcoinAddress = 'mfYHTfMs5ptQpWoefcdt9RWi3WTWGeSB7J';
const bitcoinLinkedTx = 'f551ad8d2f3cce24ff8b5e5f8d0e072f9998f0e9ee48847c6898398914990378'; // Add the previous transaction here
const bitcoinLinkedIndex = '1'; // Add the linked transaction index here
const bitcoinInputAmount = 1637230; // set equal to the number of satoshis in your first input
const bitcoinPartyBAmount = 10000; // set equal to the number of satoshis to send to party B
const bitcoinChangeAmount = 1625030; // set equal to the number of satoshis to send back to yourself 
                                // ( must be equal to 'total input amount' - 'party B amount' - extraFields.feePrice )

// HTLC p2sh-p2wsh address obtained in the creation step with create-p2sh-p2wsh-payment-channel.js
const partyBBitcoinAddress = '2MsnRcJgVzzMPXTFEtf5diNnZd6VLbwWWNP';

//  ---------------------------------------------------------
//  -------------- END VARIABLES TO UPDATE ------------------
//  ---------------------------------------------------------

; (async () => {
  try {
    // Connect to overledger and choose which distributed ledgers to use:
    const overledger = new OverledgerSDK(mappId, bpiKey, {
      dlts: [{ dlt: DltNameOptions.BITCOIN }],
      provider: { network: 'testnet' },
    });
    const transactionMessage = 'OVL SDK Test';

    // SET partyA accounts for signing;
    overledger.dlts.bitcoin.setAccount({ privateKey: partyABitcoinPrivateKey });

    const signedTransactions = await overledger.sign([
    {
          // The following parameters are from the TransactionRequest object:
      dlt: DltNameOptions.BITCOIN,
      type: TransactionTypeOptions.UTXO,
      subType: {name: TransactionBitcoinSubTypeOptions.VALUE_TRANSFER},
      message: transactionMessage,
            // The following parameters are from the TransactionUtxoRequest object:
      txInputs: [ // Set as many inputs as required in order to fund your outputs
        {
          linkedTx: bitcoinLinkedTx,
          linkedIndex: bitcoinLinkedIndex,
          fromAddress: partyABitcoinAddress,
          linkedRawTransaction: '0200000001151c2586e50a75aec8be3c8b3a3eebe88edfa81e941231c1293f7f5a438bc222010000006a47304402205e6cab63e9def13bd7e2e5fade6400259f7615747d187f5237906dc30c062a71022028966ace656097fef37bd153b39572293794d3cc3563b8339462f713819b6d9d0121035b71e0ec7329c32acf0a86eaa62e88951818021c9ff893108ef5b3103db32221ffffffff03102700000000000022002023dba6751e332415fc3d0e0e57f3f6391bf81f0dffb989a7c19be79224b756f76efb1800000000001976a91400406a26567183b9b3e42e5fed00f70a2d11428188ac00000000000000000e6a0c4f564c2053444b205465737400000000',
          scriptPubKey: '76a91400406a26567183b9b3e42e5fed00f70a2d11428188ac',
          amount: bitcoinInputAmount
        }
      ],
      txOutputs: [ // Set as many outputs as required
        {  
          toAddress: partyBBitcoinAddress,
          amount: bitcoinPartyBAmount 
        },
        {
          toAddress: partyABitcoinAddress, // This is the change address
          amount: bitcoinChangeAmount 
        }
      ],
      extraFields: {
              // The following parameters are from the TransactionBitcoinRequest object:
        feePrice: '2200' // Price for the miner to add this transaction to the block
      },
    }
  ]);

    console.log("Signed transactions: ");
    console.log(JSON.stringify(signedTransactions, null, 2));

    // Send the transactions to Overledger.
    const result = (await overledger.send(signedTransactions)).data;

    // Log the result.
    console.log('OVL result:');
    console.log(JSON.stringify(result, null, 2));
    console.log("");
    counter = 0;
    while (counter < result.dltData.length){
      console.log('Your ' + result.dltData[counter].dlt + ' value transfer transaction hash is: ' + result.dltData[counter].transactionHash);
      console.log("");
      counter = counter + 1;
    }
  } catch (e) {
    console.error('error:', e);
  }
})();