//NOTE: replace @quantnetwork/ with ../../packages/ for all require statements below if you have not built the SDK yourself
const bip65 = require('bip65');
const OverledgerSDK = require('@quantnetwork/overledger-bundle').default;
const DltNameOptions = require('@quantnetwork/overledger-types').DltNameOptions;
const TransactionTypeOptions = require('@quantnetwork/overledger-types').TransactionTypeOptions;
const TransactionBitcoinSubTypeOptions = require('@quantnetwork/overledger-dlt-bitcoin').TransactionBitcoinSubTypeOptions;
const TransactionBitcoinFunctionOptions = require('@quantnetwork/overledger-dlt-bitcoin').TransactionBitcoinFunctionOptions;

//  ---------------------------------------------------------
//  -------------- BEGIN VARIABLES TO UPDATE ----------------
//  ---------------------------------------------------------
const mappId = 'network.quant.testnet';
const bpiKey = 'joNp29bJkQHwEwP3FmNZFgHTqCmciVu5NYD3LkEtk1I';

// Paste in your bitcoin, ethereum and XRP ledger private keys.

const partyABitcoinAddress = '2NBFdsVUtgMNS3kEJ9L8vNvBU7PDZmGnuV9';
const bitcoinLinkedTx = '1d0f4793ab87c5e6a2d6c34c86223c2b758672eb1367680c226f41ed5a40d0f3'; // Add the previous transaction here
const bitcoinLinkedIndex = '0'; // Add the linked transaction index here
const bitcoinInputAmount = 10000; // set equal to the number of satoshis in your first input
const bitcoinPartyBAmount = 7800; // set equal to the number of satoshis to send to party B
const bitcoinChangeAmount = 0; // set equal to the number of satoshis to send back to yourself 
                                // ( must be equal to 'total input amount' - 'party B amount' - extraFields.feePrice )
const nLocktime = bip65.encode({ blocks: 1935633 });
// Now provide three other addresses that you will be transfering value too
const partyBBitcoinAddress = 'mxvHBCNoT8mCP7MFaERVuBy9GMzmHcR9hj';
const partyBBitcoinPrivateKey = 'cQYWyycWa8KXRV2Y2c82NYPjdJuSy7wpFMhauMRVNNPFxDyLaAdn';
// const nLocktime = bip65.encode({ blocks: 1935476 });
//  ---------------------------------------------------------
//  -------------- END VARIABLES TO UPDATE ------------------
//  ---------------------------------------------------------

; (async () => {
  try {
    // Connect to overledger and choose which distributed ledgers to use:
    const overledger = new OverledgerSDK(mappId, bpiKey, {
      dlts: [{ dlt: DltNameOptions.BITCOIN }],
      provider: { network: 'testnet' },
    });
    const transactionMessage = 'OVL SDK Test';

    // SET partyA accounts for signing;
    overledger.dlts.bitcoin.setAccount({ privateKey: partyBBitcoinPrivateKey });

    const signedTransactions = await overledger.sign([
    {
          // The following parameters are from the TransactionRequest object:
      dlt: DltNameOptions.BITCOIN,
      type: TransactionTypeOptions.UTXO,
      subType: {name: TransactionBitcoinSubTypeOptions.VALUE_TRANSFER},
      message: transactionMessage,
            // The following parameters are from the TransactionUtxoRequest object:
      txInputs: [ // Set as many inputs as required in order to fund your outputs
        { 
          linkedTx: bitcoinLinkedTx,
          linkedIndex: bitcoinLinkedIndex,
          fromAddress: partyABitcoinAddress,
          amount: bitcoinInputAmount,
          scriptPubKey: 'a914c5863356e793685dd73c29c32e3d4d296b080c5287',
          rawTransaction: '0200000001cdcdbc29cde44197090c9bcab5b0b32da67c927f2cdc345a19fdd7c3ed0e7215010000006a47304402204637b76bad12a93a06a38effb44ef67c05722d7c49e30781f37324fffd94a83302206cd752d25032c6383cde19f557a5ebe9c2f4aa3a274c2b716b79962720267c1c0121035b71e0ec7329c32acf0a86eaa62e88951818021c9ff893108ef5b3103db32221ffffffff03102700000000000017a914c5863356e793685dd73c29c32e3d4d296b080c5287e7841c00000000001976a91400406a26567183b9b3e42e5fed00f70a2d11428188ac00000000000000000e6a0c4f564c2053444b205465737400000000',
          redeemScript: 'a914c1678ba6b9cb17819bdca55c3d0e2aae4d4a97d9876321037475473e1e509bfd85dd7384d95dcb817b71f353b0e3d73616517747e98a26f167031d8911b17521035b71e0ec7329c32acf0a86eaa62e88951818021c9ff893108ef5b3103db3222168ac',
          preimage: 'quantbitcoinpaymentchannel',
          nLocktime,
          transferType: TransactionBitcoinFunctionOptions.REDEEM_HTLC
        }
      ],
      txOutputs: [ // Set as many outputs as required
        { 
          toAddress: partyBBitcoinAddress,
          amount: bitcoinPartyBAmount 
        },
        {
          toAddress: partyBBitcoinAddress, // This is the change address
          amount: bitcoinChangeAmount 
        }
      ],
      extraFields: {
              // The following parameters are from the TransactionBitcoinRequest object:
        feePrice: '2200' // Price for the miner to add this transaction to the block
      },
    }
  ]);

    console.log("Signed transactions: ");
    console.log(JSON.stringify(signedTransactions, null, 2));

    // Send the transactions to Overledger.
    const result = (await overledger.send(signedTransactions)).data;

    // Log the result.
    console.log('OVL result:');
    console.log(JSON.stringify(result, null, 2));
    console.log("");
    counter = 0;
    while (counter < result.dltData.length){
      console.log('Your ' + result.dltData[counter].dlt + ' value transfer transaction hash is: ' + result.dltData[counter].transactionHash);
      console.log("");
      counter = counter + 1;
    }
  } catch (e) {
    console.error('error:', e);
  }
})();

// https://blockstream.info/testnet/tx/b2d0d40cccccb97ece5a449af5d543fdc5acc0f6b2b1ce48d4f96403c4821e6f
